S01700004763634170706C69636174696F6E312E737265635B
S11300000C942A000C94BF030C94E8030C9412047F
S11300100C9447000C9447000C9471050C941F0534
S11300200C9448050C94F6040C9447000C94470077
S11300300C9447000C94DB050C9447000C94B20517
S11300400C9447000C9447000C9447000C94470010
S11300500C94470011241FBECFE5D8E0DEBFCDBF0E
S113006010E0A0E6B0E0EAE9FCE002C005900D92E1
S1130070AE39B107D9F720E0AEE9B0E001C01D9276
S1130080AD3DB207E1F70E94C9010C944B060C94F4
S113009000000E94B005E0919E008D3051F4F0E024
S11300A0E753FF4F108210929E0081E080939F00DF
S11300B00895AE2FB0E0A753BF4F8C93EF5FE0934A
S11300C09E0008950E94A00589E490E00C94A40584
S11300D080919F008130C1F489EC90E00E94040675
S11300E060E070E080E090E00E94760181E690E0BC
S11300F00E94630189EC90E00E94630187E690E02E
S11301000E94630110929F000895CF93C82F60E06E
S113011081E00E94C7026C2F661F6627661F86E077
S11301200E94C702C6FB662760F985E00E94C702E9
S1130130C5FB662760F984E00E94C702C4FB6627FA
S113014060F983E00E94C70261E082E00E94C70276
S11301508FEC97E00197F1F700C0000060E082E0C7
S11301600E94C7028FEC97E00197F1F700C00000EE
S1130170C3FB662760F986E00E94C702C2FB6627BC
S113018060F985E00E94C702C1FB662760F984E03C
S11301900E94C7026C2F617083E00E94C70261E075
S11301A082E00E94C7028FEC97E00197F1F700C04C
S11301B0000060E082E00E94C7028FEC97E00197A4
S11301C0F1F700C00000CF910895CF93C82F61E0EC
S11301D081E00E94C7026C2F661F6627661F86E0B7
S11301E00E94C702C6FB662760F985E00E94C70229
S11301F0C5FB662760F984E00E94C702C4FB66273A
S113020060F983E00E94C70261E082E00E94C702B5
S11302108FEC97E00197F1F700C0000060E082E006
S11302200E94C7028FEC97E00197F1F700C000002D
S1130230C3FB662760F986E00E94C702C2FB6627FB
S113024060F985E00E94C702C1FB662760F984E07B
S11302500E94C7026C2F617083E00E94C70261E0B4
S113026082E00E94C7028FEC97E00197F1F700C08B
S1130270000060E082E00E94C7028FEC97E00197E3
S1130280F1F700C00000CF9108952FE788E391E0D3
S1130290215080409040E1F700C0000082E00E94BD
S11302A0850088E20E9485008CE00E94850081E040
S11302B00E9485008FEC97E00197F1F700C00000E1
S11302C086E00C9485000F931F93CF938C01C0E0BC
S11302D0F801EC0FF11D8081882321F00E94E500D4
S11302E0CF5FF6CFCF911F910F910895811103C075
S11302F0862F806804C0813021F480EC860F0C9432
S11303008500089562E083E00E94490483E00E942E
S1130310690462E083E00E94840483E00E94C004D4
S113032082E00E94DB048FEF90E097BD86BD0895C4
S1130330CF93DF93C5EBD0E081E00E94440489931E
S11303408FE097E20197F1F700C0000090E0C93C0C
S1130350D90791F785EB90E00E94370660E081E0D1
S11303600E94760188E990E00E94630185EB90E0A9
S11303700E94630187E690E00E9463018DE0809310
S1130380B5001092B60085EB90E0DF91CF910C940C
S113039037060E94E9010E9445010E94820183E31D
S11303A00E949A050E94620080E00E943B040E9421
S11303B09E0381E00E94490362E081E00E945903A8
S11303C068E971E081E00E94AA0378940E946800C1
S11303D0FDCFE8E7F0E040E081E090E05191342F78
S11303E0369536953695242F2770513009F443C03D
S11303F020F0523009F482C0C5C0323001F13330EC
S113040061F1313071F05AB3BC0102C0660F771F3D
S11304102A95E2F79B01352F322B3ABB3BB320954B
S11304203DC057B3BC0102C0660F771F2A95E2F79F
S11304309B01352F322B37BB38B320953EC054B3C4
S1130440BC0102C0660F771F2A95E2F79B01352F86
S1130450322B34BB35B320953FC051B3BC0102C02D
S1130460660F771F2A95E2F79B01352F322B31BB9C
S113047032B3209541C0323011F1333081F1313043
S113048079F05AB3BC0102C0660F771F2A95E2F7D0
S11304909B012095352F32233ABB3BB3232342C023
S11304A057B3BC0102C0660F771F2A95E2F79B0180
S11304B02095352F322337BB38B3232343C054B39D
S11304C0BC0102C0660F771F2A95E2F79B012095B5
S11304D0352F322334BB35B3232325BB53C051B34B
S11304E0BC0102C0660F771F2A95E2F79B01209595
S11304F0352F322331BB32B3232343C0323021F1B1
S1130500333089F1313081F05AB3BC0102C0660F37
S1130510771F2A95E2F79B01362F309535233ABB96
S11305203BB3232B2BBB2EC057B3BC0102C0660FB9
S1130530771F2A95E2F79B01362F3095352337BB79
S113054038B3232B28BB1EC054B3BC0102C0660FB2
S1130550771F2A95E2F79B01362F3095352334BB5C
S113056035B3232BBACF51B3BC0102C0660F771F3A
S11305702A95E2F79B01362F3095352331BB32B3F0
S1130580232B22BB4F5F403209F028CF0895982FC8
S113059096959695969587706623D9F1613009F002
S11305A077C0913091F028F09230D9F0933029F14E
S11305B008954BB321E030E0B90102C0660F771F04
S11305C08A95E2F7CB01842B38C048B321E030E0B0
S11305D0B90102C0660F771F8A95E2F7CB01842B1D
S11305E03AC045B321E030E0B90102C0660F771F7D
S11305F08A95E2F7CB01842B3CC042B321E030E082
S1130600B90102C0660F771F8A95E2F7CB01842BEC
S11306103EC09130A1F028F09230F9F0933059F1B6
S113062008954BB321E030E0B90102C0660F771F93
S11306308A95E2F7CB01809584238BBB089548B358
S113064021E030E0B90102C0660F771F8A95E2F716
S1130650CB018095842388BB089545B321E030E025
S1130660B90102C0660F771F8A95E2F7CB01809526
S1130670842385BB089542B321E030E0B90102C070
S1130680660F771F8A95E2F7CB018095842382BB9E
S11306900895813039F018F0823039F008958BB71D
S11306A0806405C08BB7806802C08BB780628BBF43
S11306B008958130F1F018F08230A9F10895613085
S11306C049F028F0623061F0633069F0089585B72D
S11306D08B7F02C085B7846085BF85B7877F2CC0B8
S11306E085B78B7F02C085B7846085BF85B7886076
S11306F023C0613049F028F0623061F0633069F062
S1130700089585B78E7F02C085B7816085BF85B7A0
S11307108D7F12C085B78E7F02C085B7816085BF8B
S113072085B7826009C0623029F0633019F485B757
S1130730806402C085B78F7B85BF089562E080E046
S11307400E94590362E081E00E94590362E082E062
S11307500C945903813049F018F0823059F008950F
S11307607093A5006093A40008957093A300609310
S1130770A20008957093A1006093A00008951F92B1
S11307800F920FB60F9211242F933F934F935F93C1
S11307906F937F938F939F93AF93BF93EF93FF9345
S11307A0E091A400F091A500309709F00995FF911C
S11307B0EF91BF91AF919F918F917F916F915F91D5
S11307C04F913F912F910F900FBE0F901F9018954E
S11307D078941F920F920FB60F9211242F933F9388
S11307E04F935F936F937F938F939F93AF93BF9335
S11307F0EF93FF93E091A200F091A300309709F0EA
S11308000995FF91EF91BF91AF919F918F917F9146
S11308106F915F914F913F912F910F900FBE0F9069
S11308201F9018951F920F920FB60F9211242F93B9
S11308303F934F935F936F937F938F939F93AF9364
S1130840BF93EF93FF93E091A000F091A100309744
S113085009F00995FF91EF91BF91AF919F918F910D
S11308607F916F915F914F913F912F910F900FBEA8
S11308700F901F901895882321F0813019F46C98FB
S113088001C06C9A6E9A08958FB9779BFECF8FB191
S11308900895813059F038F0823071F0833091F44A
S11308A083B780640BC083B78F7B02C083B7806437
S11308B083BF83B7877F05C083B78F7B83BF83B72D
S11308C0886083BF83B7887F83BF83B7682B63BF88
S11308D00895813049F028F0823061F0833069F066
S11308E0089583B78F7E02C083B7806183BF83B7C7
S11308F08F7D08C083B78F7E02C083B7806183BFBA
S113090083B7806283BF08958230D9F050F488237E
S113091079F0813071F58FB58E7F8FBD8FB58D7F66
S113092021C08330D1F0843021F58FB5816017C0A8
S11309308FB58E7F8FBD8FB58D7F8FBD8EB5877F31
S113094008C08FB58E7F8FBD8FB58D7F8FBD8EB55F
S113095088608EBD8EB58F7E0BC08FB58E7F8FBDA8
S11309608FB582608FBD8EB588608EBD8EB5806177
S11309708EBD8EB5887F8EBD8EB5682B6EBD0895F5
S1130980813049F028F0823061F0833069F00895B5
S11309908FB58F7B02C08FB580648FBD8FB58F7785
S11309A008C08FB58F7B02C08FB580648FBD8FB5B3
S11309B080688FBD0895813049F028F0823061F05D
S11309C0833069F008958FB58F7E02C08FB5806142
S11309D08FBD8FB58F7D08C08FB58F7E02C08FB558
S11309E080618FBD8FB580628FBD08951F920F9275
S11309F00FB60F9211242F933F934F935F936F93EE
S1130A007F938F939F93AF93BF93EF93FF93E09163
S1130A10AC00F091AD00309709F00995FF91EF918A
S1130A20BF91AF919F918F917F916F915F914F9102
S1130A303F912F910F900FBE0F901F9018951F920A
S1130A400F920FB60F9211242F933F934F935F93FE
S1130A506F937F938F939F93AF93BF93EF93FF9382
S1130A60E091AA00F091AB00309709F00995FF914D
S1130A70EF91BF91AF919F918F917F916F915F9112
S1130A804F913F912F910F900FBE0F901F9018958B
S1130A901F920F920FB60F9211242F933F934F93EF
S1130AA05F936F937F938F939F93AF93BF93EF93D2
S1130AB0FF93E091A800F091A900309709F00995FF
S1130AC0FF91EF91BF91AF919F918F917F916F9122
S1130AD05F914F913F912F910F900FBE0F901F90F8
S1130AE018951F920F920FB60F9211242F933F93D4
S1130AF04F935F936F937F938F939F93AF93BF9322
S1130B00EF93FF93E091A600F091A700309709F0CE
S1130B100995FF91EF91BF91AF919F918F917F9133
S1130B206F915F914F913F912F910F900FBE0F9056
S1130B301F90189583E389B95998549A539A089544
S1130B40579A0895569A08959093B1008093B000EF
S1130B5008959093AF008093AE0008958CB90895E2
S1130B608CB108951F920F920FB60F9211242F93F8
S1130B703F934F935F936F937F938F939F93AF9321
S1130B80BF93EF93FF93E091AE00F091AF003097E5
S1130B9009F00995FF91EF91BF91AF919F918F91CA
S1130BA07F916F915F914F913F912F910F900FBE65
S1130BB00F901F9018951F920F920FB60F92112449
S1130BC02F933F934F935F936F937F938F939F9351
S1130BD0AF93BF93EF93FF93E091B000F091B10016
S1130BE0309709F00995FF91EF91BF91AF919F91D3
S1130BF08F917F916F915F914F913F912F910F90C2
S1130C000FBE0F901F9018950F931F93CF93DF93F0
S1130C10EC018C010C5E1F4F89910E9444048FE00B
S1130C2097E20197F1F700C00000C017D107A1F7C0
S1130C30DF91CF911F910F91089580916000E09111
S1130C40B200F091B300E80FF11D8081882349F0D0
S1130C5090E00E94AE05809160008F5F80936000F9
S1130C60089581E0809360008093B4000895CF9349
S1130C70DF93EC01888190E00E94AE050E94A205FA
S1130C808DE196E00E94A905D093B300C093B20011
S10D0C90DF91CF910895F894FFCF8F
S1130C9A0173656E643A0020202020202020202041
S1130CAA2020202020202000010000000000000154
S1130CBA0200000000000100000000000000000023
S1110CCA01000202000000007265733A00008F
S9030000FC
