S01700004763634170706C69636174696F6E312E737265635B
S11300000C942A000C948C030C94B5030C94DF0319
S11300100C9447000C9447000C943E050C94EC049B
S11300200C9415050C94C3040C9447000C944700DD
S11300300C9447000C94A8050C9447000C947F057D
S11300400C9447000C9447000C9447000C94470010
S11300500C94470011241FBECFE5D8E0DEBFCDBF0E
S113006010E0A0E6B0E0E4E3FCE002C005900D92ED
S1130070A238B107D9F720E0A2E8B0E001C01D9290
S1130080A13CB207E1F70E9496010C9418060C9467
S113009000000E947D05E09182008D3051F4F0E073
S11300A0E355FF4F10821092820081E08093830019
S11300B00895AE2FB0E0A355BF4F8C93EF5FE0934C
S11300C0820008950E946D0589E490E00C94710506
S11300D080918300813031F48DEA90E00E94D10553
S11300E0109283000895CF93C82F60E081E00E94AE
S11300F094026C2F661F6627661F86E00E94940296
S1130100C6FB662760F985E00E949402C5FB66275A
S113011060F984E00E949402C4FB662760F983E0DE
S11301200E94940261E082E00E9494028FEC97E0C6
S11301300197F1F700C0000060E082E00E949402A1
S11301408FEC97E00197F1F700C00000C3FB66272E
S113015060F986E00E949402C2FB662760F985E09C
S11301600E949402C1FB662760F984E00E94940215
S11301706C2F617083E00E94940261E082E00E942F
S113018094028FEC97E00197F1F700C0000060E063
S113019082E00E9494028FEC97E00197F1F700C08F
S11301A00000CF910895CF93C82F61E081E00E94B1
S11301B094026C2F661F6627661F86E00E949402D5
S11301C0C6FB662760F985E00E949402C5FB66279A
S11301D060F984E00E949402C4FB662760F983E01E
S11301E00E94940261E082E00E9494028FEC97E006
S11301F00197F1F700C0000060E082E00E949402E1
S11302008FEC97E00197F1F700C00000C3FB66276D
S113021060F986E00E949402C2FB662760F985E0DB
S11302200E949402C1FB662760F984E00E94940254
S11302306C2F617083E00E94940261E082E00E946E
S113024094028FEC97E00197F1F700C0000060E0A2
S113025082E00E9494028FEC97E00197F1F700C0CE
S11302600000CF9108952FE788E391E0215080406A
S11302709040E1F700C0000082E00E94730088E231
S11302800E9473008CE00E94730081E00E9473005E
S11302908FEC97E00197F1F700C0000086E00C9422
S11302A073000F931F93CF938C01C0E0F801EC0F00
S11302B0F11D8081882321F00E94D300CF5FF6CF07
S11302C0CF911F910F91089562E083E00E9416047C
S11302D083E00E94360462E083E00E94510483E0DC
S11302E00E948D0482E00E94A8048FEF90E097BDE5
S11302F086BD0895CF93DF93C9E9D0E081E00E94E1
S1130300110489938FE097E20197F1F700C0000090
S113031090E0C73BD90791F789E990E00E94510129
S113032089E990E0DF91CF910C9404060E94B60114
S11303300E9433010E94640183E30E9467050E94C6
S1130340620080E00E9408040E946B0381E00E9426
S1130350160362E081E00E9426036AE771E081E00F
S11303600E94770378940E946800FDCFE1E6F0E0F4
S113037040E081E090E05191342F369536953695E2
S1130380242F2770513009F443C020F0523009F46F
S113039082C0C5C0323001F1333061F1313071F0C7
S11303A05AB3BC0102C0660F771F2A95E2F79B017E
S11303B0352F322B3ABB3BB320953DC057B3BC011C
S11303C002C0660F771F2A95E2F79B01352F322B67
S11303D037BB38B320953EC054B3BC0102C0660F8E
S11303E0771F2A95E2F79B01352F322B34BB35B3A7
S11303F020953FC051B3BC0102C0660F771F2A95F8
S1130400E2F79B01352F322B31BB32B3209541C02B
S1130410323011F1333081F1313079F05AB3BC010B
S113042002C0660F771F2A95E2F79B012095352FAE
S113043032233ABB3BB3232342C057B3BC0102C0AF
S1130440660F771F2A95E2F79B012095352F3223FB
S113045037BB38B3232343C054B3BC0102C0660F77
S1130460771F2A95E2F79B012095352F322334BB61
S113047035B3232325BB53C051B3BC0102C0660F5F
S1130480771F2A95E2F79B012095352F322331BB44
S113049032B3232343C0323021F1333089F1313078
S11304A081F05AB3BC0102C0660F771F2A95E2F7A8
S11304B09B01362F309535233ABB3BB3232B2BBB03
S11304C02EC057B3BC0102C0660F771F2A95E2F70E
S11304D09B01362F3095352337BB38B3232B28BBEC
S11304E01EC054B3BC0102C0660F771F2A95E2F701
S11304F09B01362F3095352334BB35B3232BBACF2C
S113050051B3BC0102C0660F771F2A95E2F79B0125
S1130510362F3095352331BB32B3232B22BB4F5FAB
S1130520403209F028CF0895982F96959695969580
S113053087706623D9F1613009F077C0913091F06A
S113054028F09230D9F0933029F108954BB321E08B
S113055030E0B90102C0660F771F8A95E2F7CB013C
S1130560842B38C048B321E030E0B90102C0660FE3
S1130570771F8A95E2F7CB01842B3AC045B321E07B
S113058030E0B90102C0660F771F8A95E2F7CB010C
S1130590842B3CC042B321E030E0B90102C0660FB5
S11305A0771F8A95E2F7CB01842B3EC09130A1F0EE
S11305B028F09230F9F0933059F108954BB321E0CB
S11305C030E0B90102C0660F771F8A95E2F7CB01CC
S11305D0809584238BBB089548B321E030E0B901B2
S11305E002C0660F771F8A95E2F7CB0180958423BA
S11305F088BB089545B321E030E0B90102C0660F1D
S1130600771F8A95E2F7CB018095842385BB0895F3
S113061042B321E030E0B90102C0660F771F8A952A
S1130620E2F7CB018095842382BB0895813039F0B1
S113063018F0823039F008958BB7806405C08BB709
S1130640806802C08BB780628BBF08958130F1F05F
S113065018F08230A9F10895613049F028F0623031
S113066061F0633069F0089585B78B7F02C085B768
S1130670846085BF85B7877F2CC085B78B7F02C018
S113068085B7846085BF85B7886023C0613049F031
S113069028F0623061F0633069F0089585B78E7F89
S11306A002C085B7816085BF85B78D7F12C085B7CD
S11306B08E7F02C085B7816085BF85B7826009C01F
S11306C0623029F0633019F485B7806402C085B7BD
S11306D08F7B85BF089562E080E00E94260362E07C
S11306E081E00E94260362E082E00C9426038130BC
S11306F049F018F0823059F008957093890060939E
S1130700880008957093870060938600089570931D
S113071085006093840008951F920F920FB60F9284
S113072011242F933F934F935F936F937F938F93F2
S11307309F93AF93BF93EF93FF93E0918800F09161
S11307408900309709F00995FF91EF91BF91AF911E
S11307509F918F917F916F915F914F913F912F91D5
S11307600F900FBE0F901F90189578941F920F92C0
S11307700FB60F9211242F933F934F935F936F9370
S11307807F938F939F93AF93BF93EF93FF93E091E6
S11307908600F0918700309709F00995FF91EF9159
S11307A0BF91AF919F918F917F916F915F914F9185
S11307B03F912F910F900FBE0F901F9018951F928D
S11307C00F920FB60F9211242F933F934F935F9381
S11307D06F937F938F939F93AF93BF93EF93FF9305
S11307E0E0918400F0918500309709F00995FF911C
S11307F0EF91BF91AF919F918F917F916F915F9195
S11308004F913F912F910F900FBE0F901F9018950D
S1130810882321F0813019F46C9801C06C9A6E9A87
S113082008958FB9779BFECF8FB10895813059F029
S113083038F0823071F0833091F483B780640BC058
S113084083B78F7B02C083B7806483BF83B7877FFE
S113085005C083B78F7B83BF83B7886083BF83B7AB
S1130860887F83BF83B7682B63BF0895813049F0C5
S113087028F0823061F0833069F0089583B78F7E69
S113088002C083B7806183BF83B78F7D08C083B7FD
S11308908F7E02C083B7806183BF83B7806283BFCA
S11308A008958230D9F050F4882379F0813071F5BD
S11308B08FB58E7F8FBD8FB58D7F21C08330D1F0F2
S11308C0843021F58FB5816017C08FB58E7F8FBDC1
S11308D08FB58D7F8FBD8EB5877F08C08FB58E7F16
S11308E08FBD8FB58D7F8FBD8EB588608EBD8EB563
S11308F08F7E0BC08FB58E7F8FBD8FB582608FBD0D
S11309008EB588608EBD8EB580618EBD8EB5887FB4
S11309108EBD8EB5682B6EBD0895813049F028F0E8
S1130920823061F0833069F008958FB58F7B02C007
S11309308FB580648FBD8FB58F7708C08FB58F7BDF
S113094002C08FB580648FBD8FB580688FBD089558
S1130950813049F028F0823061F0833069F00895E5
S11309608FB58F7E02C08FB580618FBD8FB58F7DAF
S113097008C08FB58F7E02C08FB580618FBD8FB5E3
S113098080628FBD08951F920F920FB60F921124AB
S11309902F933F934F935F936F937F938F939F9383
S11309A0AF93BF93EF93FF93E0919000F091910088
S11309B0309709F00995FF91EF91BF91AF919F9105
S11309C08F917F916F915F914F913F912F910F90F4
S11309D00FBE0F901F9018951F920F920FB60F9293
S11309E011242F933F934F935F936F937F938F9330
S11309F09F93AF93BF93EF93FF93E0918E00F09199
S1130A008F00309709F00995FF91EF91BF91AF9155
S1130A109F918F917F916F915F914F913F912F9112
S1130A200F900FBE0F901F9018951F920F920FB644
S1130A300F9211242F933F934F935F936F937F9360
S1130A408F939F93AF93BF93EF93FF93E0918C00A9
S1130A50F0918D00309709F00995FF91EF91BF91C6
S1130A60AF919F918F917F916F915F914F913F9142
S1130A702F910F900FBE0F901F9018951F920F92F9
S1130A800FB60F9211242F933F934F935F936F935D
S1130A907F938F939F93AF93BF93EF93FF93E091D3
S1130AA08A00F0918B00309709F00995FF91EF913E
S1130AB0BF91AF919F918F917F916F915F914F9172
S1130AC03F912F910F900FBE0F901F90189583E3C5
S1130AD089B95998549A539A0895579A0895569AE9
S1130AE008959093950080939400089590939300B3
S1130AF08093920008958CB908958CB108951F9243
S1130B000F920FB60F9211242F933F934F935F933D
S1130B106F937F938F939F93AF93BF93EF93FF93C1
S1130B20E0919200F0919300309709F00995FF91BC
S1130B30EF91BF91AF919F918F917F916F915F9151
S1130B404F913F912F910F900FBE0F901F901895CA
S1130B501F920F920FB60F9211242F933F934F932E
S1130B605F936F937F938F939F93AF93BF93EF9311
S1130B70FF93E0919400F0919500309709F0099566
S1130B80FF91EF91BF91AF919F918F917F916F9161
S1130B905F914F913F912F910F900FBE0F901F9037
S1130BA018950F931F93CF93DF93EC018C010C5E88
S1130BB01F4F89910E9411048FE097E20197F1F78A
S1130BC000C00000C017D107A1F7DF91CF911F919A
S1130BD00F91089580916000E0919600F091970044
S1130BE0E80FF11D8081882349F090E00E947B0585
S1130BF0809160008F5F80936000089581E080930E
S1130C006000809398000895CF93DF93EC0188816E
S1130C1090E00E947B050E946F058AEE95E00E9499
S1130C207605D0939700C0939600DF91CF910895F5
S1070C30F894FFCF62
S1130C3401010000000000000102000000000001A6
S1130C440000000000000000000100020200000097
S1050C5400009A
S9030000FC
