S00D0000736C6176652E73726563FC
S11300000C942A000C9447000C9447000C9447006D
S11300100C9447000C9447000C945F040C940D045A
S11300200C9436040C94E4030C9447000C9447009D
S11300300C9447000C94C9040C9447000C94A0043D
S11300400C9447000C9447000C9447000C94470010
S11300500C94470011241FBECFE5D8E0DEBFCDBF0E
S113006010E0A0E6B0E0EEE6FAE002C005900D92E2
S1130070AA38B107D9F720E0AAE8B0E001C01D9280
S1130080A13CB207E1F70E94B6010C9435050C942B
S113009000000E949E04E0918A008D3021F5F0E07A
S11300A0E756FF4F108210928A0060E081E00E94C0
S11300B0940189E990E00E94810181E690E00E9428
S11300C0810161E088E00E94A6028FEC97E001972D
S11300D0F1F700C0000060E088E00E94A60289E910
S11300E090E00C94F204AE2FB0E0A756BF4F8C936F
S11300F0EF5FE0938A000895CF93DF93CDEAD0E0D9
S11301000E943303899380E0C13CD807C9F78DEA84
S113011090E00E94210560E080E00E94940185E661
S113012090E00E9481018DEA90E00E94810182E6C4
S113013090E0DF91CF910C9481010E948E0489E4B8
S113014090E00C949204CF93C82F60E081E00E9469
S1130150A6026C2F661F6627661F86E00E94A60211
S1130160C6FB662760F985E00E94A602C5FB6627E8
S113017060F984E00E94A602C4FB662760F983E06C
S11301800E94A60261E082E00E94A6028FEC97E042
S11301900197F1F700C0000060E082E00E94A6022F
S11301A08FEC97E00197F1F700C00000C3FB6627CE
S11301B060F986E00E94A602C2FB662760F985E02A
S11301C00E94A602C1FB662760F984E00E94A60291
S11301D06C2F617083E00E94A60261E082E00E94BD
S11301E0A6028FEC97E00197F1F700C0000060E0F1
S11301F082E00E94A6028FEC97E00197F1F700C01D
S11302000000CF910895CF93C82F61E081E00E9450
S1130210A6026C2F661F6627661F86E00E94A60250
S1130220C6FB662760F985E00E94A602C5FB662727
S113023060F984E00E94A602C4FB662760F983E0AB
S11302400E94A60261E082E00E94A6028FEC97E081
S11302500197F1F700C0000060E082E00E94A6026E
S11302608FEC97E00197F1F700C00000C3FB66270D
S113027060F986E00E94A602C2FB662760F985E069
S11302800E94A602C1FB662760F984E00E94A602D0
S11302906C2F617083E00E94A60261E082E00E94FC
S11302A0A6028FEC97E00197F1F700C0000060E030
S11302B082E00E94A6028FEC97E00197F1F700C05C
S11302C00000CF9108952FE788E391E0215080400A
S11302D09040E1F700C0000082E00E94A30088E2A1
S11302E00E94A3008CE00E94A30081E00E94A3006E
S11302F08FEC97E00197F1F700C0000086E00C94C2
S1130300A3000F931F93CF938C01C0E0F801EC0F6F
S1130310F11D8081882321F00E940301CF5FF6CF75
S1130320CF911F910F910895811103C0862F80688A
S113033004C0813021F480EC860F0C94A30008954E
S113034062E083E00E94370383E00E94570362E087
S113035083E00E94720383E00E94AE0382E00E9465
S1130360C9038FEF90E097BD86BD08950E94C80130
S11303700E9463010E94A00183E30E94880481E03B
S11303800E9428030E949D0078940E947C00FDCF67
S1130390EAE6F0E040E081E090E05191342F3695B8
S11303A036953695242F2770513009F443C020F038
S11303B0523009F482C0C5C0323001F1333061F1EA
S11303C0313071F05AB3BC0102C0660F771F2A9511
S11303D0E2F79B01352F322B3ABB3BB320953DC04E
S11303E057B3BC0102C0660F771F2A95E2F79B0141
S11303F0352F322B37BB38B320953EC054B3BC01E4
S113040002C0660F771F2A95E2F79B01352F322B26
S113041034BB35B320953FC051B3BC0102C0660F55
S1130420771F2A95E2F79B01352F322B31BB32B36C
S1130430209541C0323011F1333081F1313079F0FF
S11304405AB3BC0102C0660F771F2A95E2F79B01DD
S11304502095352F32233ABB3BB3232342C057B3F5
S1130460BC0102C0660F771F2A95E2F79B01209515
S1130470352F322337BB38B3232343C054B3BC01D5
S113048002C0660F771F2A95E2F79B012095352F4E
S1130490322334BB35B3232325BB53C051B3BC0132
S11304A002C0660F771F2A95E2F79B012095352F2E
S11304B0322331BB32B3232343C0323021F13330F2
S11304C089F1313081F05AB3BC0102C0660F771F45
S11304D02A95E2F79B01362F309535233ABB3BB37F
S11304E0232B2BBB2EC057B3BC0102C0660F771F52
S11304F02A95E2F79B01362F3095352337BB38B365
S1130500232B28BB1EC054B3BC0102C0660F771F47
S11305102A95E2F79B01362F3095352334BB35B34A
S1130520232BBACF51B3BC0102C0660F771F2A95A3
S1130530E2F79B01362F3095352331BB32B3232BA1
S113054022BB4F5F403209F028CF0895982F96952B
S11305509695969587706623D9F1613009F077C036
S1130560913091F028F09230D9F0933029F1089528
S11305704BB321E030E0B90102C0660F771F8A95C2
S1130580E2F7CB01842B38C048B321E030E0B90155
S113059002C0660F771F8A95E2F7CB01842B3AC01D
S11305A045B321E030E0B90102C0660F771F8A9598
S11305B0E2F7CB01842B3CC042B321E030E0B90127
S11305C002C0660F771F8A95E2F7CB01842B3EC0E9
S11305D09130A1F028F09230F9F0933059F1089558
S11305E04BB321E030E0B90102C0660F771F8A9552
S11305F0E2F7CB01809584238BBB089548B321E0B7
S113060030E0B90102C0660F771F8A95E2F7CB018B
S11306108095842388BB089545B321E030E0B90177
S113062002C0660F771F8A95E2F7CB018095842379
S113063085BB089542B321E030E0B90102C0660FE2
S1130640771F8A95E2F7CB018095842382BB0895B6
S1130650882321F0813019F46C9801C06C9A6E9A49
S113066008958FB90895779BFECF8FB10895813097
S113067059F038F0823071F0833091F483B780649C
S11306800BC083B78F7B02C083B7806483BF83B7FB
S1130690877F05C083B78F7B83BF83B7886083BFA1
S11306A083B7887F83BF83B7682B63BF0895813086
S11306B049F028F0823061F0833069F0089583B7FF
S11306C08F7E02C083B7806183BF83B78F7D08C0EC
S11306D083B78F7E02C083B7806183BF83B7806294
S11306E083BF08958230D9F050F4882379F08130A3
S11306F071F58FB58E7F8FBD8FB58D7F21C083300F
S1130700D1F0843021F58FB5816017C08FB58E7F0D
S11307108FBD8FB58D7F8FBD8EB5877F08C08FB598
S11307208E7F8FBD8FB58D7F8FBD8EB588608EBD5A
S11307308EB58F7E0BC08FB58E7F8FBD8FB58260D7
S11307408FBD8EB588608EBD8EB580618EBD8EB531
S1130750887F8EBD8EB5682B6EBD0895813049F0BB
S113076028F0823061F0833069F008958FB58F7B73
S113077002C08FB580648FBD8FB58F7708C08FB5E9
S11307808F7B02C08FB580648FBD8FB580688FBDAD
S11307900895813049F028F0823061F0833069F0A7
S11307A008958FB58F7E02C08FB580618FBD8FB5E0
S11307B08F7D08C08FB58F7E02C08FB580618FBDDD
S11307C08FB580628FBD08951F920F920FB60F925E
S11307D011242F933F934F935F936F937F938F9342
S11307E09F93AF93BF93EF93FF93E0919100F091A8
S11307F09200309709F00995FF91EF91BF91AF9165
S11308009F918F917F916F915F914F913F912F9124
S11308100F900FBE0F901F9018951F920F920FB656
S11308200F9211242F933F934F935F936F937F9372
S11308308F939F93AF93BF93EF93FF93E0918F00B8
S1130840F0919000309709F00995FF91EF91BF91D5
S1130850AF919F918F917F916F915F914F913F9154
S11308602F910F900FBE0F901F9018951F920F920B
S11308700FB60F9211242F933F934F935F936F936F
S11308807F938F939F93AF93BF93EF93FF93E091E5
S11308908D00F0918E00309709F00995FF91EF914A
S11308A0BF91AF919F918F917F916F915F914F9184
S11308B03F912F910F900FBE0F901F9018951F928C
S11308C00F920FB60F9211242F933F934F935F9380
S11308D06F937F938F939F93AF93BF93EF93FF9304
S11308E0E0918B00F0918C00309709F00995FF910D
S11308F0EF91BF91AF919F918F917F916F915F9194
S11309004F913F912F910F900FBE0F901F9018950C
S113091083E389B95998549A539A0895579A089534
S1130920569A089590939600809395000895909315
S113093094008093930008958CB908958CB1089520
S11309401F920F920FB60F9211242F933F934F9340
S11309505F936F937F938F939F93AF93BF93EF9323
S1130960FF93E0919300F0919400309709F009957A
S1130970FF91EF91BF91AF919F918F917F916F9173
S11309805F914F913F912F910F900FBE0F901F9049
S113099018951F920F920FB60F9211242F933F9325
S11309A04F935F936F937F938F939F93AF93BF9373
S11309B0EF93FF93E0919500F0919600309709F042
S11309C00995FF91EF91BF91AF919F918F917F9185
S11309D06F915F914F913F912F910F900FBE0F90A8
S11309E01F9018950F931F93CF93DF93EC018C0105
S11309F00C5E1F4F89910E9431038FE097E20197AB
S1130A00F1F700C00000C017D107A1F7DF91CF9123
S1130A101F910F91089580916000E0919700F091EB
S1130A209800E80FF11D8081882339F090E00E943E
S1130A309C04809160008F5F01C081E0809360001E
S1130A400895CF93DF93EC01888190E00E949C0489
S1130A500E9490048BE095E00E949704D093980044
S1110A60C0939700DF91CF910895F894FFCFD3
S1130A6E01202020007265733A000100000000008E
S1130A7E000100000000000200020000000000005F
S10D0A8E0000010002020000000055
S9030000FC
