S00D0000736C6176652E73726563FC
S11300000C942A000C9447000C9447000C9447006D
S11300100C9447000C9447000C946C040C941A0440
S11300200C9443040C94F1030C9447000C94470083
S11300300C9447000C94D6040C9447000C94AD0423
S11300400C9447000C9447000C9447000C94470010
S11300500C94470011241FBECFE5D8E0DEBFCDBF0E
S113006010E0A0E6B0E0E8E8FAE002C005900D92E6
S1130070AA39B107D9F720E0AAE9B0E001C01D927E
S1130080A13DB207E1F70E94C3010C9442050C9410
S113009000000E94AB04E0919A008D3041F5F0E03D
S11300A0E556FF4F108210929A0060E081E00E94B2
S11300B0A10181E690E00E948E018BE990E00E940C
S11300C08E0187E690E00E948E0161E088E00E9444
S11300D0B3028FEC97E00197F1F700C0000060E0F5
S11300E088E00E94B3028BE990E00C94FF04AE2FE9
S11300F0B0E0A556BF4F8C93EF5FE0939A0008954C
S1130100CF93DF93CFEAD0E00E944003899380E04D
S1130110C33CD807C9F78FEA90E00E942E0560E03F
S113012080E00E94A10185E790E00E948E018FEAA1
S113013090E00E948E018CE690E00E948E018DE09A
S11301408093AF001092B0008FEA90E0DF91CF91DE
S11301500C942E050E949B0489E490E00C949F0467
S1130160CF93C82F60E081E00E94B3026C2F661F1A
S11301706627661F86E00E94B302C6FB662760F905
S113018085E00E94B302C5FB662760F984E00E9403
S1130190B302C4FB662760F983E00E94B30261E006
S11301A082E00E94B3028FEC97E00197F1F700C060
S11301B0000060E082E00E94B3028FEC97E00197B8
S11301C0F1F700C00000C3FB662760F986E00E94D7
S11301D0B302C2FB662760F985E00E94B302C1FB4B
S11301E0662760F984E00E94B3026C2F617083E09B
S11301F00E94B30261E082E00E94B3028FEC97E0B8
S11302000197F1F700C0000060E082E00E94B302B1
S11302108FEC97E00197F1F700C00000CF910895AB
S1130220CF93C82F61E081E00E94B3026C2F661F58
S11302306627661F86E00E94B302C6FB662760F944
S113024085E00E94B302C5FB662760F984E00E9442
S1130250B302C4FB662760F983E00E94B30261E045
S113026082E00E94B3028FEC97E00197F1F700C09F
S1130270000060E082E00E94B3028FEC97E00197F7
S1130280F1F700C00000C3FB662760F986E00E9416
S1130290B302C2FB662760F985E00E94B302C1FB8A
S11302A0662760F984E00E94B3026C2F617083E0DA
S11302B00E94B30261E082E00E94B3028FEC97E0F7
S11302C00197F1F700C0000060E082E00E94B302F1
S11302D08FEC97E00197F1F700C00000CF910895EB
S11302E02FE788E391E0215080409040E1F700C07F
S11302F0000082E00E94B00088E20E94B0008CE01E
S11303000E94B00081E00E94B0008FEC97E001975A
S1130310F1F700C0000086E00C94B0000F931F9327
S1130320CF938C01C0E0F801EC0FF11D808188238C
S113033021F00E941001CF5FF6CFCF911F910F9152
S11303400895811103C0862F806804C0813021F490
S113035080EC860F0C94B000089562E083E00E9464
S1130360440383E00E94640362E083E00E947F030D
S113037083E00E94BB0382E00E94D6038FEF90E0EB
S113038097BD86BD08950E94D5010E9470010E9408
S1130390AD0183E30E94950481E00E9435030E942D
S11303A0AA0078940E948000FDCFEAE7F0E040E0E4
S11303B081E090E05191342F369536953695242F6F
S11303C02770513009F443C020F0523009F482C040
S11303D0C5C0323001F1333061F1313071F05AB3BC
S11303E0BC0102C0660F771F2A95E2F79B01352FE7
S11303F0322B3ABB3BB320953DC057B3BC0102C07E
S1130400660F771F2A95E2F79B01352F322B37BBF6
S113041038B320953EC054B3BC0102C0660F771FA9
S11304202A95E2F79B01352F322B34BB35B3209547
S11304303FC051B3BC0102C0660F771F2A95E2F793
S11304409B01352F322B31BB32B3209541C0323062
S113045011F1333081F1313079F05AB3BC0102C06B
S1130460660F771F2A95E2F79B012095352F3223DB
S11304703ABB3BB3232342C057B3BC0102C0660F4F
S1130480771F2A95E2F79B012095352F322337BB3E
S113049038B3232343C054B3BC0102C0660F771F93
S11304A02A95E2F79B012095352F322334BB35B3CF
S11304B0232325BB53C051B3BC0102C0660F771F71
S11304C02A95E2F79B012095352F322331BB32B3B5
S11304D0232343C0323021F1333089F1313081F0AC
S11304E05AB3BC0102C0660F771F2A95E2F79B013D
S11304F0362F309535233ABB3BB3232B2BBB2EC071
S113050057B3BC0102C0660F771F2A95E2F79B011F
S1130510362F3095352337BB38B3232B28BB1EC069
S113052054B3BC0102C0660F771F2A95E2F79B0102
S1130530362F3095352334BB35B3232BBACF51B383
S1130540BC0102C0660F771F2A95E2F79B01362F84
S11305503095352331BB32B3232B22BB4F5F40325E
S113056009F028CF0895982F9695969596958770BB
S11305706623D9F1613009F077C0913091F028F009
S11305809230D9F0933029F108954BB321E030E053
S1130590B90102C0660F771F8A95E2F7CB01842B5D
S11305A038C048B321E030E0B90102C0660F771FBC
S11305B08A95E2F7CB01842B3AC045B321E030E0C1
S11305C0B90102C0660F771F8A95E2F7CB01842B2D
S11305D03CC042B321E030E0B90102C0660F771F8E
S11305E08A95E2F7CB01842B3EC09130A1F028F02C
S11305F09230F9F0933059F108954BB321E030E093
S1130600B90102C0660F771F8A95E2F7CB01809586
S113061084238BBB089548B321E030E0B90102C0C4
S1130620660F771F8A95E2F7CB018095842388BBF8
S1130630089545B321E030E0B90102C0660F771F89
S11306408A95E2F7CB018095842385BB089542B354
S113065021E030E0B90102C0660F771F8A95E2F706
S1130660CB018095842382BB0895882321F08130B7
S113067019F46C9801C06C9A6E9A08958FB9089514
S1130680779BFECF8FB10895813059F038F08230D6
S113069071F0833091F483B780640BC083B78F7B90
S11306A002C083B7806483BF83B7877F05C083B7E5
S11306B08F7B83BF83B7886083BF83B7887F83BF03
S11306C083B7682B63BF0895813049F028F08230E6
S11306D061F0833069F0089583B78F7E02C083B7D9
S11306E0806183BF83B78F7D08C083B78F7E02C0CC
S11306F083B7806183BF83B7806283BF08958230EC
S1130700D9F050F4882379F0813071F58FB58E7F5C
S11307108FBD8FB58D7F21C08330D1F0843021F51A
S11307208FB5816017C08FB58E7F8FBD8FB58D7FDC
S11307308FBD8EB5877F08C08FB58E7F8FBD8FB577
S11307408D7F8FBD8EB588608EBD8EB58F7E0BC0BC
S11307508FB58E7F8FBD8FB582608FBD8EB588605B
S11307608EBD8EB580618EBD8EB5887F8EBD8EB5F3
S1130770682B6EBD0895813049F028F0823061F015
S1130780833069F008958FB58F7B02C08FB5806484
S11307908FBD8FB58F7708C08FB58F7B02C08FB5A3
S11307A080648FBD8FB580688FBD0895813049F016
S11307B028F0823061F0833069F008958FB58F7E20
S11307C002C08FB580618FBD8FB58F7D08C08FB596
S11307D08F7E02C08FB580618FBD8FB580628FBD63
S11307E008951F920F920FB60F9211242F933F93E7
S11307F04F935F936F937F938F939F93AF93BF9325
S1130800EF93FF93E091C900F091CA00309709F08B
S11308100995FF91EF91BF91AF919F918F917F9136
S11308206F915F914F913F912F910F900FBE0F9059
S11308301F9018951F920F920FB60F9211242F93A9
S11308403F934F935F936F937F938F939F93AF9354
S1130850BF93EF93FF93E091C700F091C8003097E6
S113086009F00995FF91EF91BF91AF919F918F91FD
S11308707F916F915F914F913F912F910F900FBE98
S11308800F901F9018951F920F920FB60F9211247C
S11308902F933F934F935F936F937F938F939F9384
S11308A0AF93BF93EF93FF93E091C500F091C6001F
S11308B0309709F00995FF91EF91BF91AF919F9106
S11308C08F917F916F915F914F913F912F910F90F5
S11308D00FBE0F901F9018951F920F920FB60F9294
S11308E011242F933F934F935F936F937F938F9331
S11308F09F93AF93BF93EF93FF93E091C300F09165
S1130900C400309709F00995FF91EF91BF91AF9121
S11309109F918F917F916F915F914F913F912F9113
S11309200F900FBE0F901F90189583E389B95998C3
S1130930549A539A0895579A0895569A08959093FD
S1130940CE008093CD0008959093CC008093CB008B
S113095008958CB908958CB108951F920F920FB623
S11309600F9211242F933F934F935F936F937F9331
S11309708F939F93AF93BF93EF93FF93E091CB003B
S1130980F091CC00309709F00995FF91EF91BF9158
S1130990AF919F918F917F916F915F914F913F9113
S11309A02F910F900FBE0F901F9018951F920F92CA
S11309B00FB60F9211242F933F934F935F936F932E
S11309C07F938F939F93AF93BF93EF93FF93E091A4
S11309D0CD00F091CE00309709F00995FF91EF9189
S11309E0BF91AF919F918F917F916F915F914F9143
S11309F03F912F910F900FBE0F901F9018950F935A
S1130A001F93CF93DF93EC018C010C5E1F4F8991F0
S1130A100E943E038FE097E20197F1F700C00000C7
S1130A20C017D107A1F7DF91CF911F910F910895BE
S1130A3080916000E091CF00F091D000E80FF11DAB
S1130A408081882339F090E00E94A904809160009D
S1130A508F5F01C081E0809360000895CF93DF939E
S1130A60EC01888190E00E94A9040E949D0488E121
S1130A7095E00E94A404D093D000C093CF00DF91EE
S10B0A80CF910895F894FFCF13
S1130A880173656E643A0020202020202020202055
S1130A9820202020007265733A0001000000000045
S1130AA80001000000000002000200000000000035
S10D0AB8000001000202000000002B
S9030000FC
